{
  "contractName": "AssessmentManagement",
  "abi": [
    {
      "inputs": [],
      "stateMutability": "nonpayable",
      "type": "constructor"
    },
    {
      "inputs": [],
      "name": "stdCount",
      "outputs": [
        {
          "internalType": "int256",
          "name": "",
          "type": "int256"
        }
      ],
      "stateMutability": "view",
      "type": "function",
      "constant": true
    },
    {
      "inputs": [
        {
          "internalType": "int256",
          "name": "",
          "type": "int256"
        }
      ],
      "name": "stdRecords",
      "outputs": [
        {
          "internalType": "int256",
          "name": "studentID",
          "type": "int256"
        },
        {
          "internalType": "int256",
          "name": "marks",
          "type": "int256"
        },
        {
          "internalType": "int256",
          "name": "courseID",
          "type": "int256"
        },
        {
          "internalType": "int256",
          "name": "testNo",
          "type": "int256"
        }
      ],
      "stateMutability": "view",
      "type": "function",
      "constant": true
    },
    {
      "inputs": [
        {
          "internalType": "int256",
          "name": "_studentID",
          "type": "int256"
        },
        {
          "internalType": "int256",
          "name": "_marks",
          "type": "int256"
        },
        {
          "internalType": "int256",
          "name": "_courseID",
          "type": "int256"
        },
        {
          "internalType": "int256",
          "name": "_testNo",
          "type": "int256"
        }
      ],
      "name": "addMarks",
      "outputs": [],
      "stateMutability": "nonpayable",
      "type": "function"
    },
    {
      "inputs": [
        {
          "internalType": "int256",
          "name": "_studentID",
          "type": "int256"
        },
        {
          "internalType": "int256",
          "name": "_courseID",
          "type": "int256"
        },
        {
          "internalType": "int256",
          "name": "_testNo",
          "type": "int256"
        },
        {
          "internalType": "int256",
          "name": "_bonus",
          "type": "int256"
        }
      ],
      "name": "updateMarks",
      "outputs": [],
      "stateMutability": "nonpayable",
      "type": "function"
    },
    {
      "inputs": [
        {
          "internalType": "int256",
          "name": "_studentID",
          "type": "int256"
        },
        {
          "internalType": "int256",
          "name": "_courseID",
          "type": "int256"
        },
        {
          "internalType": "int256",
          "name": "_testNo",
          "type": "int256"
        }
      ],
      "name": "viewMarks",
      "outputs": [
        {
          "internalType": "int256",
          "name": "",
          "type": "int256"
        }
      ],
      "stateMutability": "nonpayable",
      "type": "function"
    }
  ],
  "bytecode": "0x6080604052600060015534801561001557600080fd5b50336000806101000a81548173ffffffffffffffffffffffffffffffffffffffff021916908373ffffffffffffffffffffffffffffffffffffffff160217905550610b90806100656000396000f3fe608060405234801561001057600080fd5b50600436106100575760003560e01c806319cccf641461005c5780634d111dbe146100785780638f7bbbad14610094578063cd9f8398146100c4578063fe615f2a146100f7575b600080fd5b610076600480360381019061007191906105f7565b610115565b005b610092600480360381019061008d91906105f7565b610305565b005b6100ae60048036038101906100a9919061065e565b610429565b6040516100bb91906106c0565b60405180910390f35b6100de60048036038101906100d991906106db565b610586565b6040516100ee9493929190610708565b60405180910390f35b6100ff6105b6565b60405161010c91906106c0565b60405180910390f35b3373ffffffffffffffffffffffffffffffffffffffff1660008054906101000a900473ffffffffffffffffffffffffffffffffffffffff1673ffffffffffffffffffffffffffffffffffffffff161461016d57600080fd5b60008313801561017e575060648313155b6101bd576040517f08c379a00000000000000000000000000000000000000000000000000000000081526004016101b4906107aa565b60405180910390fd5b6000811380156101ce575060048113155b61020d576040517f08c379a00000000000000000000000000000000000000000000000000000000081526004016102049061083c565b60405180910390fd5b80600a8561021b919061088b565b61271084610229919061088b565b61023391906109a2565b61023d91906109a2565b6001819055506000600260006001548152602001908152602001600020600001541461029e576040517f08c379a000000000000000000000000000000000000000000000000000000000815260040161029590610aa8565b60405180910390fd5b6040518060800160405280858152602001848152602001838152602001828152506002600060015481526020019081526020016000206000820151816000015560208201518160010155604082015181600201556060820151816003015590505050505050565b3373ffffffffffffffffffffffffffffffffffffffff1660008054906101000a900473ffffffffffffffffffffffffffffffffffffffff1673ffffffffffffffffffffffffffffffffffffffff161461035d57600080fd5b60008213801561036e575060048213155b6103ad576040517f08c379a00000000000000000000000000000000000000000000000000000000081526004016103a49061083c565b60405180910390fd5b81600a856103bb919061088b565b612710856103c9919061088b565b6103d391906109a2565b6103dd91906109a2565b600181905550806002600060015481526020019081526020016000206001015461040791906109a2565b6002600060015481526020019081526020016000206001018190555050505050565b60003373ffffffffffffffffffffffffffffffffffffffff1660008054906101000a900473ffffffffffffffffffffffffffffffffffffffff1673ffffffffffffffffffffffffffffffffffffffff161461048357600080fd5b600082138015610494575060048213155b6104d3576040517f08c379a00000000000000000000000000000000000000000000000000000000081526004016104ca9061083c565b60405180910390fd5b81600a856104e1919061088b565b612710856104ef919061088b565b6104f991906109a2565b61050391906109a2565b60018190555060006002600060015481526020019081526020016000206001015403610564576040517f08c379a000000000000000000000000000000000000000000000000000000000815260040161055b90610b3a565b60405180910390fd5b6002600060015481526020019081526020016000206001015490509392505050565b60026020528060005260406000206000915090508060000154908060010154908060020154908060030154905084565b60015481565b600080fd5b6000819050919050565b6105d4816105c1565b81146105df57600080fd5b50565b6000813590506105f1816105cb565b92915050565b60008060008060808587031215610611576106106105bc565b5b600061061f878288016105e2565b9450506020610630878288016105e2565b9350506040610641878288016105e2565b9250506060610652878288016105e2565b91505092959194509250565b600080600060608486031215610677576106766105bc565b5b6000610685868287016105e2565b9350506020610696868287016105e2565b92505060406106a7868287016105e2565b9150509250925092565b6106ba816105c1565b82525050565b60006020820190506106d560008301846106b1565b92915050565b6000602082840312156106f1576106f06105bc565b5b60006106ff848285016105e2565b91505092915050565b600060808201905061071d60008301876106b1565b61072a60208301866106b1565b61073760408301856106b1565b61074460608301846106b1565b95945050505050565b600082825260208201905092915050565b7f506c6561736520656e74657220612076616c6964206173736573736d656e7400600082015250565b6000610794601f8361074d565b915061079f8261075e565b602082019050919050565b600060208201905081810360008301526107c381610787565b9050919050565b7f506c6561736520636865636b207468652074657374206e756d62657220796f7560008201527f20617265206c6f6f6b696e6720666f7200000000000000000000000000000000602082015250565b600061082660308361074d565b9150610831826107ca565b604082019050919050565b6000602082019050818103600083015261085581610819565b9050919050565b7f4e487b7100000000000000000000000000000000000000000000000000000000600052601160045260246000fd5b6000610896826105c1565b91506108a1836105c1565b9250827f7fffffffffffffffffffffffffffffffffffffffffffffffffffffffffffffff04821160008413600084131616156108e0576108df61085c565b5b817f8000000000000000000000000000000000000000000000000000000000000000058312600084126000841316161561091d5761091c61085c565b5b827f8000000000000000000000000000000000000000000000000000000000000000058212600084136000841216161561095a5761095961085c565b5b827f7fffffffffffffffffffffffffffffffffffffffffffffffffffffffffffffff05821260008412600084121616156109975761099661085c565b5b828202905092915050565b60006109ad826105c1565b91506109b8836105c1565b9250817f7fffffffffffffffffffffffffffffffffffffffffffffffffffffffffffffff038313600083121516156109f3576109f261085c565b5b817f8000000000000000000000000000000000000000000000000000000000000000038312600083121615610a2b57610a2a61085c565b5b828201905092915050565b7f416c7265616479206164646564206173736573736d656e7420666f722074686960008201527f732073747564656e740000000000000000000000000000000000000000000000602082015250565b6000610a9260298361074d565b9150610a9d82610a36565b604082019050919050565b60006020820190508181036000830152610ac181610a85565b9050919050565b7f4d61726b73206e6f742075706461746564207965742e20506c6561736520636860008201527f65636b206261636b206c61746572000000000000000000000000000000000000602082015250565b6000610b24602e8361074d565b9150610b2f82610ac8565b604082019050919050565b60006020820190508181036000830152610b5381610b17565b905091905056fea2646970667358221220946421a880fd6a1403dd8840734bc726ba856ce391bdc64fd065da6590f4a98464736f6c634300080e0033",
  "immutableReferences": {},
  "source": "contract AssessmentManagement\n{\n\tstruct Student\n\t{\n\t\tint studentID;\n\t\tint marks;\n        int courseID;\n        int testNo;\n\t}\n\n\taddress owner;\n\tint public stdCount = 0;\n\n\tmapping(int => Student) public stdRecords;\n\n\tmodifier onlyOwner\n\t{\n\t\trequire(owner == msg.sender);\n\t\t_;\n\t}\n\n\tconstructor()\n\t{\n\t\towner=msg.sender;\n\t}\n\n\tfunction addMarks(int _studentID, int _marks, int _courseID, int _testNo) public onlyOwner\n\t{\n\t\trequire(_marks > 0 && _marks <= 100, \"Please enter a valid assessment\");\n\t\trequire(_testNo > 0 && _testNo <=4, \"Please check the test number you are looking for\");\n\t\tstdCount = (_courseID * 10000) + (_studentID * 10) + (_testNo);\n        require(stdRecords[stdCount].studentID == 0, \"Already added assessment for this student\");\n\t\tstdRecords[stdCount] = Student(_studentID, _marks, _courseID, _testNo);\n\t}\n\n\tfunction updateMarks(int _studentID, int _courseID, int _testNo, int _bonus) public onlyOwner\n\t{\n\t\trequire(_testNo > 0 && _testNo <=4, \"Please check the test number you are looking for\");\n        stdCount = (_courseID * 10000) + (_studentID * 10) + (_testNo);\n\t\tstdRecords[stdCount].marks = stdRecords[stdCount].marks + _bonus;\n\t}\n\n\tfunction viewMarks(int _studentID, int _courseID, int _testNo) public onlyOwner returns (int) \n    {\n\t\trequire(_testNo > 0 && _testNo <=4, \"Please check the test number you are looking for\");\n\t\tstdCount = (_courseID * 10000) + (_studentID * 10) + (_testNo);\n\t\trequire(stdRecords[stdCount].marks != 0, \"Marks not updated yet. Please check back later\");\n\t\treturn stdRecords[stdCount].marks;\n\t}\n}\n",
  "sourcePath": "/Volumes/Samsung T5 500GB/Final Year Project/Student-Record-Data-Management/contracts/contracts/Assessment.sol",
  "compiler": {
    "name": "solc",
    "version": "0.8.14+commit.80d49f37.Emscripten.clang"
  },
  "schemaVersion": "3.4.7",
  "updatedAt": "2022-05-22T11:07:36.766Z",
  "networkType": "ethereum",
  "devdoc": {
    "kind": "dev",
    "methods": {},
    "version": 1
  },
  "userdoc": {
    "kind": "user",
    "methods": {},
    "version": 1
  }
}