{
  "contractName": "AttendanceManagement",
  "abi": [
    {
      "inputs": [],
      "stateMutability": "nonpayable",
      "type": "constructor"
    },
    {
      "inputs": [
        {
          "internalType": "int256",
          "name": "",
          "type": "int256"
        }
      ],
      "name": "attendanceRecord",
      "outputs": [
        {
          "internalType": "int256",
          "name": "courseID",
          "type": "int256"
        },
        {
          "internalType": "int256",
          "name": "studentID",
          "type": "int256"
        },
        {
          "internalType": "string",
          "name": "date",
          "type": "string"
        },
        {
          "internalType": "bool",
          "name": "present",
          "type": "bool"
        },
        {
          "internalType": "int256",
          "name": "class",
          "type": "int256"
        },
        {
          "internalType": "int256",
          "name": "credits",
          "type": "int256"
        }
      ],
      "stateMutability": "view",
      "type": "function",
      "constant": true
    },
    {
      "inputs": [],
      "name": "count",
      "outputs": [
        {
          "internalType": "int256",
          "name": "",
          "type": "int256"
        }
      ],
      "stateMutability": "view",
      "type": "function",
      "constant": true
    },
    {
      "inputs": [
        {
          "internalType": "int256",
          "name": "_courseID",
          "type": "int256"
        },
        {
          "internalType": "int256",
          "name": "_studentID",
          "type": "int256"
        },
        {
          "internalType": "string",
          "name": "_date",
          "type": "string"
        },
        {
          "internalType": "int256",
          "name": "_class",
          "type": "int256"
        },
        {
          "internalType": "int256",
          "name": "_credits",
          "type": "int256"
        }
      ],
      "name": "markAsPresent",
      "outputs": [],
      "stateMutability": "nonpayable",
      "type": "function"
    },
    {
      "inputs": [
        {
          "internalType": "int256",
          "name": "_courseID",
          "type": "int256"
        },
        {
          "internalType": "int256",
          "name": "_studentID",
          "type": "int256"
        },
        {
          "internalType": "string",
          "name": "_date",
          "type": "string"
        },
        {
          "internalType": "int256",
          "name": "_class",
          "type": "int256"
        },
        {
          "internalType": "int256",
          "name": "_credits",
          "type": "int256"
        }
      ],
      "name": "markAsAbsent",
      "outputs": [],
      "stateMutability": "nonpayable",
      "type": "function"
    },
    {
      "inputs": [
        {
          "internalType": "int256",
          "name": "_courseID",
          "type": "int256"
        },
        {
          "internalType": "int256",
          "name": "_studentID",
          "type": "int256"
        },
        {
          "internalType": "int256",
          "name": "_credits",
          "type": "int256"
        }
      ],
      "name": "getAttendance",
      "outputs": [
        {
          "internalType": "int256",
          "name": "",
          "type": "int256"
        }
      ],
      "stateMutability": "nonpayable",
      "type": "function"
    }
  ],
  "bytecode": "0x6080604052600060015534801561001557600080fd5b50336000806101000a81548173ffffffffffffffffffffffffffffffffffffffff021916908373ffffffffffffffffffffffffffffffffffffffff160217905550610f5c806100656000396000f3fe608060405234801561001057600080fd5b50600436106100575760003560e01c806306661abd1461005c578063750e67161461007a578063a1b68fd5146100af578063aac094fc146100cb578063f7e701c3146100e7575b600080fd5b610064610117565b604051610071919061079d565b60405180910390f35b610094600480360381019061008f91906107f8565b61011d565b6040516100a6969594939291906108d9565b60405180910390f35b6100c960048036038101906100c49190610a76565b6101ee565b005b6100e560048036038101906100e09190610a76565b610410565b005b61010160048036038101906100fc9190610b0d565b610632565b60405161010e919061079d565b60405180910390f35b60015481565b600260205280600052604060002060009150905080600001549080600101549080600201805461014c90610b8f565b80601f016020809104026020016040519081016040528092919081815260200182805461017890610b8f565b80156101c55780601f1061019a576101008083540402835291602001916101c5565b820191906000526020600020905b8154815290600101906020018083116101a857829003601f168201915b5050505050908060030160009054906101000a900460ff16908060040154908060050154905086565b3373ffffffffffffffffffffffffffffffffffffffff1660008054906101000a900473ffffffffffffffffffffffffffffffffffffffff1673ffffffffffffffffffffffffffffffffffffffff161461027c576040517f08c379a000000000000000000000000000000000000000000000000000000000815260040161027390610c0c565b60405180910390fd5b8160648561028a9190610c5b565b620186a0876102999190610c5b565b6102a39190610d72565b6102ad9190610d72565b6001819055506000600260006001548152602001908152602001600020600101541461030e576040517f08c379a000000000000000000000000000000000000000000000000000000000815260040161030590610e52565b60405180910390fd5b600c8161031b9190610c5b565b821261035c576040517f08c379a000000000000000000000000000000000000000000000000000000000815260040161035390610ebe565b60405180910390fd5b6040518060c0016040528086815260200185815260200184815260200160011515815260200183815260200182815250600260006001548152602001908152602001600020600082015181600001556020820151816001015560408201518160020190805190602001906103d19291906106e1565b5060608201518160030160006101000a81548160ff0219169083151502179055506080820151816004015560a082015181600501559050505050505050565b3373ffffffffffffffffffffffffffffffffffffffff1660008054906101000a900473ffffffffffffffffffffffffffffffffffffffff1673ffffffffffffffffffffffffffffffffffffffff161461049e576040517f08c379a000000000000000000000000000000000000000000000000000000000815260040161049590610c0c565b60405180910390fd5b816064856104ac9190610c5b565b620186a0876104bb9190610c5b565b6104c59190610d72565b6104cf9190610d72565b60018190555060006002600060015481526020019081526020016000206001015414610530576040517f08c379a000000000000000000000000000000000000000000000000000000000815260040161052790610e52565b60405180910390fd5b600c8161053d9190610c5b565b821261057e576040517f08c379a000000000000000000000000000000000000000000000000000000000815260040161057590610ebe565b60405180910390fd5b6040518060c0016040528086815260200185815260200184815260200160001515815260200183815260200182815250600260006001548152602001908152602001600020600082015181600001556020820151816001015560408201518160020190805190602001906105f39291906106e1565b5060608201518160030160006101000a81548160ff0219169083151502179055506080820151816004015560a082015181600501559050505050505050565b60008060009050600080600092505b600c8561064e9190610c5b565b8312156106d457826064876106639190610c5b565b620186a0896106729190610c5b565b61067c9190610d72565b6106869190610d72565b91506002600083815260200190815260200160002060030160009054906101000a900460ff16156106c1576001816106be9190610d72565b90505b82806106cc90610ede565b935050610641565b8093505050509392505050565b8280546106ed90610b8f565b90600052602060002090601f01602090048101928261070f5760008555610756565b82601f1061072857805160ff1916838001178555610756565b82800160010185558215610756579182015b8281111561075557825182559160200191906001019061073a565b5b5090506107639190610767565b5090565b5b80821115610780576000816000905550600101610768565b5090565b6000819050919050565b61079781610784565b82525050565b60006020820190506107b2600083018461078e565b92915050565b6000604051905090565b600080fd5b600080fd5b6107d581610784565b81146107e057600080fd5b50565b6000813590506107f2816107cc565b92915050565b60006020828403121561080e5761080d6107c2565b5b600061081c848285016107e3565b91505092915050565b600081519050919050565b600082825260208201905092915050565b60005b8381101561085f578082015181840152602081019050610844565b8381111561086e576000848401525b50505050565b6000601f19601f8301169050919050565b600061089082610825565b61089a8185610830565b93506108aa818560208601610841565b6108b381610874565b840191505092915050565b60008115159050919050565b6108d3816108be565b82525050565b600060c0820190506108ee600083018961078e565b6108fb602083018861078e565b818103604083015261090d8187610885565b905061091c60608301866108ca565b610929608083018561078e565b61093660a083018461078e565b979650505050505050565b600080fd5b600080fd5b7f4e487b7100000000000000000000000000000000000000000000000000000000600052604160045260246000fd5b61098382610874565b810181811067ffffffffffffffff821117156109a2576109a161094b565b5b80604052505050565b60006109b56107b8565b90506109c1828261097a565b919050565b600067ffffffffffffffff8211156109e1576109e061094b565b5b6109ea82610874565b9050602081019050919050565b82818337600083830152505050565b6000610a19610a14846109c6565b6109ab565b905082815260208101848484011115610a3557610a34610946565b5b610a408482856109f7565b509392505050565b600082601f830112610a5d57610a5c610941565b5b8135610a6d848260208601610a06565b91505092915050565b600080600080600060a08688031215610a9257610a916107c2565b5b6000610aa0888289016107e3565b9550506020610ab1888289016107e3565b945050604086013567ffffffffffffffff811115610ad257610ad16107c7565b5b610ade88828901610a48565b9350506060610aef888289016107e3565b9250506080610b00888289016107e3565b9150509295509295909350565b600080600060608486031215610b2657610b256107c2565b5b6000610b34868287016107e3565b9350506020610b45868287016107e3565b9250506040610b56868287016107e3565b9150509250925092565b7f4e487b7100000000000000000000000000000000000000000000000000000000600052602260045260246000fd5b60006002820490506001821680610ba757607f821691505b602082108103610bba57610bb9610b60565b5b50919050565b7f4e6f7420417574686f72697a6564000000000000000000000000000000000000600082015250565b6000610bf6600e83610830565b9150610c0182610bc0565b602082019050919050565b60006020820190508181036000830152610c2581610be9565b9050919050565b7f4e487b7100000000000000000000000000000000000000000000000000000000600052601160045260246000fd5b6000610c6682610784565b9150610c7183610784565b9250827f7fffffffffffffffffffffffffffffffffffffffffffffffffffffffffffffff0482116000841360008413161615610cb057610caf610c2c565b5b817f80000000000000000000000000000000000000000000000000000000000000000583126000841260008413161615610ced57610cec610c2c565b5b827f80000000000000000000000000000000000000000000000000000000000000000582126000841360008412161615610d2a57610d29610c2c565b5b827f7fffffffffffffffffffffffffffffffffffffffffffffffffffffffffffffff0582126000841260008412161615610d6757610d66610c2c565b5b828202905092915050565b6000610d7d82610784565b9150610d8883610784565b9250817f7fffffffffffffffffffffffffffffffffffffffffffffffffffffffffffffff03831360008312151615610dc357610dc2610c2c565b5b817f8000000000000000000000000000000000000000000000000000000000000000038312600083121615610dfb57610dfa610c2c565b5b828201905092915050565b7f416c7265616479206d61726b656420617474656e64616e636500000000000000600082015250565b6000610e3c601983610830565b9150610e4782610e06565b602082019050919050565b60006020820190508181036000830152610e6b81610e2f565b9050919050565b7f436f7572736520636f6e636c7564656400000000000000000000000000000000600082015250565b6000610ea8601083610830565b9150610eb382610e72565b602082019050919050565b60006020820190508181036000830152610ed781610e9b565b9050919050565b6000610ee982610784565b91507f7fffffffffffffffffffffffffffffffffffffffffffffffffffffffffffffff8203610f1b57610f1a610c2c565b5b60018201905091905056fea26469706673582212205d57205c3d7824ab04328a005b092e051fa640a72130efa1fc443bea7ee0371464736f6c634300080e0033",
  "immutableReferences": {},
  "source": "contract AttendanceManagement {\n    struct Attendance {\n        int courseID;\n        int studentID;\n        string date;\n        bool present;\n        int class;\n        int credits;\n    }\n\n    address owner;\n    int public count = 0;\n    mapping (int => Attendance) public attendanceRecord;\n\n\tmodifier onlyOwner\n\t{\n\t\trequire(owner == msg.sender, \"Not Authorized\");\n\t\t_;\n\t}\n\n\tconstructor()\n\t{\n\t\towner=msg.sender;\n\t}\n\n    function markAsPresent (\n        int _courseID,\n        int _studentID,\n        string memory _date,\n        int _class,\n        int _credits\n    ) public onlyOwner {\n\n        count = (_courseID * 100000) + (_studentID * 100) + _class;\n        require(attendanceRecord[count].studentID == 0, \"Already marked attendance\");\n        require(_class < (_credits * 12), \"Course concluded\");\n        attendanceRecord[count] = Attendance(_courseID, _studentID, _date, true, _class, _credits);\n    }\n\n\n    function markAsAbsent (\n        int _courseID,\n        int _studentID,\n        string memory _date,\n        int _class,\n        int _credits\n    ) public onlyOwner {\n\n        count = (_courseID * 100000) + (_studentID * 100) + _class;\n        require(attendanceRecord[count].studentID == 0, \"Already marked attendance\");\n        require(_class < (_credits * 12), \"Course concluded\");\n        attendanceRecord[count] = Attendance(_courseID, _studentID, _date, false, _class, _credits);\n    }\n\n    function getAttendance (\n        int _courseID,\n        int _studentID,\n        int _credits\n    ) public returns (int) {\n        int i = 0;\n        int dummyCount = 0;\n        int noOfClasses = 0;\n        for( i = 0; i < (_credits * 12); i++){\n            dummyCount = (_courseID * 100000) + (_studentID * 100) + i;\n            if(attendanceRecord[dummyCount].present){\n                noOfClasses += 1;\n            } \n        }\n\n        return noOfClasses;\n    }\n}",
  "sourcePath": "/Volumes/Samsung T5 500GB/Final Year Project/Student-Record-Data-Management/contracts/contracts/Attendance.sol",
  "compiler": {
    "name": "solc",
    "version": "0.8.14+commit.80d49f37.Emscripten.clang"
  },
  "schemaVersion": "3.4.7",
  "updatedAt": "2022-05-22T11:07:36.776Z",
  "networkType": "ethereum",
  "devdoc": {
    "kind": "dev",
    "methods": {},
    "version": 1
  },
  "userdoc": {
    "kind": "user",
    "methods": {},
    "version": 1
  }
}