{
  "contractName": "CourseEnrollement",
  "abi": [
    {
      "inputs": [],
      "stateMutability": "nonpayable",
      "type": "constructor"
    },
    {
      "inputs": [
        {
          "internalType": "int256",
          "name": "",
          "type": "int256"
        }
      ],
      "name": "courseDetails",
      "outputs": [
        {
          "internalType": "int256",
          "name": "courseID",
          "type": "int256"
        },
        {
          "internalType": "int256",
          "name": "credits",
          "type": "int256"
        },
        {
          "internalType": "string",
          "name": "courseName",
          "type": "string"
        },
        {
          "internalType": "int256",
          "name": "year",
          "type": "int256"
        },
        {
          "internalType": "int256",
          "name": "seats",
          "type": "int256"
        }
      ],
      "stateMutability": "view",
      "type": "function",
      "constant": true
    },
    {
      "inputs": [
        {
          "internalType": "int256",
          "name": "_courseID",
          "type": "int256"
        },
        {
          "internalType": "int256",
          "name": "_credits",
          "type": "int256"
        },
        {
          "internalType": "string",
          "name": "_courseName",
          "type": "string"
        },
        {
          "internalType": "int256",
          "name": "_year",
          "type": "int256"
        },
        {
          "internalType": "int256",
          "name": "_seats",
          "type": "int256"
        }
      ],
      "name": "addCourse",
      "outputs": [],
      "stateMutability": "nonpayable",
      "type": "function"
    },
    {
      "inputs": [
        {
          "internalType": "int256",
          "name": "_studentID",
          "type": "int256"
        },
        {
          "internalType": "int256",
          "name": "_courseID",
          "type": "int256"
        }
      ],
      "name": "enrollCourse",
      "outputs": [],
      "stateMutability": "nonpayable",
      "type": "function"
    }
  ],
  "bytecode": "0x608060405234801561001057600080fd5b50336000806101000a81548173ffffffffffffffffffffffffffffffffffffffff021916908373ffffffffffffffffffffffffffffffffffffffff160217905550610c32806100606000396000f3fe608060405234801561001057600080fd5b50600436106100415760003560e01c8063b5c7187014610046578063eda2499f1461007a578063f676068d14610096575b600080fd5b610060600480360381019061005b91906105c8565b6100b2565b60405161007195949392919061069d565b60405180910390f35b610094600480360381019061008f919061082c565b610170565b005b6100b060048036038101906100ab91906108c3565b6103a6565b005b60016020528060005260406000206000915090508060000154908060010154908060020180546100e190610932565b80601f016020809104026020016040519081016040528092919081815260200182805461010d90610932565b801561015a5780601f1061012f5761010080835404028352916020019161015a565b820191906000526020600020905b81548152906001019060200180831161013d57829003601f168201915b5050505050908060030154908060040154905085565b3373ffffffffffffffffffffffffffffffffffffffff1660008054906101000a900473ffffffffffffffffffffffffffffffffffffffff1673ffffffffffffffffffffffffffffffffffffffff16146101fe576040517f08c379a00000000000000000000000000000000000000000000000000000000081526004016101f5906109af565b60405180910390fd5b60008413610241576040517f08c379a000000000000000000000000000000000000000000000000000000000815260040161023890610a41565b60405180910390fd5b60018212158015610253575060048213155b610292576040517f08c379a000000000000000000000000000000000000000000000000000000000815260040161028990610aad565b60405180910390fd5b60006001600087815260200190815260200160002060020180546102b590610932565b9050146102f7576040517f08c379a00000000000000000000000000000000000000000000000000000000081526004016102ee90610b19565b60405180910390fd5b60606040518060c00160405280878152602001868152602001858152602001848152602001838152602001828152506001600088815260200190815260200160002060008201518160000155602082015181600101556040820151816002019080519060200190610369929190610451565b50606082015181600301556080820151816004015560a082015181600501908051906020019061039a9291906104d7565b50905050505050505050565b6000600180600084815260200190815260200160002060040160008282546103ce9190610b68565b9250508190555060016000838152602001908152602001600020600501339080600181540180825580915050600190039060005260206000200160009091909190916101000a81548173ffffffffffffffffffffffffffffffffffffffff021916908373ffffffffffffffffffffffffffffffffffffffff160217905550505050565b82805461045d90610932565b90600052602060002090601f01602090048101928261047f57600085556104c6565b82601f1061049857805160ff19168380011785556104c6565b828001600101855582156104c6579182015b828111156104c55782518255916020019190600101906104aa565b5b5090506104d39190610561565b5090565b828054828255906000526020600020908101928215610550579160200282015b8281111561054f5782518260006101000a81548173ffffffffffffffffffffffffffffffffffffffff021916908373ffffffffffffffffffffffffffffffffffffffff160217905550916020019190600101906104f7565b5b50905061055d9190610561565b5090565b5b8082111561057a576000816000905550600101610562565b5090565b6000604051905090565b600080fd5b600080fd5b6000819050919050565b6105a581610592565b81146105b057600080fd5b50565b6000813590506105c28161059c565b92915050565b6000602082840312156105de576105dd610588565b5b60006105ec848285016105b3565b91505092915050565b6105fe81610592565b82525050565b600081519050919050565b600082825260208201905092915050565b60005b8381101561063e578082015181840152602081019050610623565b8381111561064d576000848401525b50505050565b6000601f19601f8301169050919050565b600061066f82610604565b610679818561060f565b9350610689818560208601610620565b61069281610653565b840191505092915050565b600060a0820190506106b260008301886105f5565b6106bf60208301876105f5565b81810360408301526106d18186610664565b90506106e060608301856105f5565b6106ed60808301846105f5565b9695505050505050565b600080fd5b600080fd5b7f4e487b7100000000000000000000000000000000000000000000000000000000600052604160045260246000fd5b61073982610653565b810181811067ffffffffffffffff8211171561075857610757610701565b5b80604052505050565b600061076b61057e565b90506107778282610730565b919050565b600067ffffffffffffffff82111561079757610796610701565b5b6107a082610653565b9050602081019050919050565b82818337600083830152505050565b60006107cf6107ca8461077c565b610761565b9050828152602081018484840111156107eb576107ea6106fc565b5b6107f68482856107ad565b509392505050565b600082601f830112610813576108126106f7565b5b81356108238482602086016107bc565b91505092915050565b600080600080600060a0868803121561084857610847610588565b5b6000610856888289016105b3565b9550506020610867888289016105b3565b945050604086013567ffffffffffffffff8111156108885761088761058d565b5b610894888289016107fe565b93505060606108a5888289016105b3565b92505060806108b6888289016105b3565b9150509295509295909350565b600080604083850312156108da576108d9610588565b5b60006108e8858286016105b3565b92505060206108f9858286016105b3565b9150509250929050565b7f4e487b7100000000000000000000000000000000000000000000000000000000600052602260045260246000fd5b6000600282049050600182168061094a57607f821691505b60208210810361095d5761095c610903565b5b50919050565b7f4e6f7420417574686f72697a6564000000000000000000000000000000000000600082015250565b6000610999600e8361060f565b91506109a482610963565b602082019050919050565b600060208201905081810360008301526109c88161098c565b9050919050565b7f506c6561736520656e74657220746865206e756d626572206f6620637265646960008201527f747320666f72207468697320636f757273650000000000000000000000000000602082015250565b6000610a2b60328361060f565b9150610a36826109cf565b604082019050919050565b60006020820190508181036000830152610a5a81610a1e565b9050919050565b7f506c6561736520656e74657220612076616c6964207965617200000000000000600082015250565b6000610a9760198361060f565b9150610aa282610a61565b602082019050919050565b60006020820190508181036000830152610ac681610a8a565b9050919050565b7f5468697320636f7572736520616c726561647920657869737473000000000000600082015250565b6000610b03601a8361060f565b9150610b0e82610acd565b602082019050919050565b60006020820190508181036000830152610b3281610af6565b9050919050565b7f4e487b7100000000000000000000000000000000000000000000000000000000600052601160045260246000fd5b6000610b7382610592565b9150610b7e83610592565b9250827f800000000000000000000000000000000000000000000000000000000000000001821260008412151615610bb957610bb8610b39565b5b827f7fffffffffffffffffffffffffffffffffffffffffffffffffffffffffffffff018213600084121615610bf157610bf0610b39565b5b82820390509291505056fea26469706673582212200da57b8ba42f7ae0c78ae2d2c8ce6d604cfcb4c33b53a5c19aeaf9bcf16da63c64736f6c634300080e0033",
  "immutableReferences": {},
  "source": "contract CourseEnrollement {\n    struct Course {\n        int courseID;\n        int credits;\n        string courseName;\n        int year;\n        int seats;\n        address[] students;\n    }\n\n    address owner;\n\n    mapping (int => Course) public courseDetails;\n\n\tmodifier onlyOwner\n\t{\n\t\trequire(owner == msg.sender, \"Not Authorized\");\n\t\t_;\n\t}\n\n\tconstructor()\n\t{\n\t\towner=msg.sender;\n\t}\n\n    function addCourse (int _courseID,\n        int _credits,\n        string memory _courseName,\n        int _year,\n        int _seats) public onlyOwner {\n            require(_credits > 0, \"Please enter the number of credits for this course\");\n            require(_year >= 1 && _year <= 4, \"Please enter a valid year\");\n            require(bytes(courseDetails[_courseID].courseName).length == 0, \"This course already exists\");\n\n            address[] memory emptyAddressList;\n\n            courseDetails[_courseID] = Course(_courseID, _credits, _courseName, _year, _seats, emptyAddressList);\n        }\n    \n    function enrollCourse (int _studentID, int _courseID) public {\n        int i = 0;\n        courseDetails[_courseID].seats -= 1;\n        courseDetails[_courseID].students.push(msg.sender);\n    }\n}",
  "sourcePath": "/Volumes/Samsung T5 500GB/Final Year Project/Student-Record-Data-Management/contracts/contracts/CourseEnrollement.sol",
  "compiler": {
    "name": "solc",
    "version": "0.8.14+commit.80d49f37.Emscripten.clang"
  },
  "schemaVersion": "3.4.7",
  "updatedAt": "2022-05-22T11:07:36.789Z",
  "networkType": "ethereum",
  "devdoc": {
    "kind": "dev",
    "methods": {},
    "version": 1
  },
  "userdoc": {
    "kind": "user",
    "methods": {},
    "version": 1
  }
}