{
  "contractName": "StudentDataManagement",
  "abi": [
    {
      "inputs": [
        {
          "internalType": "uint256",
          "name": "",
          "type": "uint256"
        }
      ],
      "name": "attendanceRecord",
      "outputs": [
        {
          "internalType": "uint256",
          "name": "courseID",
          "type": "uint256"
        },
        {
          "internalType": "uint256",
          "name": "studentID",
          "type": "uint256"
        },
        {
          "internalType": "string",
          "name": "date",
          "type": "string"
        },
        {
          "internalType": "bool",
          "name": "present",
          "type": "bool"
        },
        {
          "internalType": "uint256",
          "name": "class",
          "type": "uint256"
        },
        {
          "internalType": "uint256",
          "name": "credits",
          "type": "uint256"
        }
      ],
      "stateMutability": "view",
      "type": "function",
      "constant": true
    },
    {
      "inputs": [],
      "name": "count",
      "outputs": [
        {
          "internalType": "uint256",
          "name": "",
          "type": "uint256"
        }
      ],
      "stateMutability": "view",
      "type": "function",
      "constant": true
    },
    {
      "inputs": [
        {
          "internalType": "uint256",
          "name": "",
          "type": "uint256"
        }
      ],
      "name": "courseDetails",
      "outputs": [
        {
          "internalType": "uint256",
          "name": "courseID",
          "type": "uint256"
        },
        {
          "internalType": "uint256",
          "name": "credits",
          "type": "uint256"
        },
        {
          "internalType": "string",
          "name": "courseName",
          "type": "string"
        },
        {
          "internalType": "uint256",
          "name": "year",
          "type": "uint256"
        },
        {
          "internalType": "uint256",
          "name": "seats",
          "type": "uint256"
        },
        {
          "internalType": "string",
          "name": "staffId",
          "type": "string"
        }
      ],
      "stateMutability": "view",
      "type": "function",
      "constant": true
    },
    {
      "inputs": [
        {
          "internalType": "uint256",
          "name": "",
          "type": "uint256"
        }
      ],
      "name": "semester1",
      "outputs": [
        {
          "internalType": "uint256",
          "name": "",
          "type": "uint256"
        }
      ],
      "stateMutability": "view",
      "type": "function",
      "constant": true
    },
    {
      "inputs": [],
      "name": "stdCount",
      "outputs": [
        {
          "internalType": "uint256",
          "name": "",
          "type": "uint256"
        }
      ],
      "stateMutability": "view",
      "type": "function",
      "constant": true
    },
    {
      "inputs": [
        {
          "internalType": "uint256",
          "name": "",
          "type": "uint256"
        }
      ],
      "name": "stdRecords",
      "outputs": [
        {
          "internalType": "uint256",
          "name": "studentID",
          "type": "uint256"
        },
        {
          "internalType": "uint256",
          "name": "marks",
          "type": "uint256"
        },
        {
          "internalType": "uint256",
          "name": "courseID",
          "type": "uint256"
        },
        {
          "internalType": "uint256",
          "name": "testNo",
          "type": "uint256"
        }
      ],
      "stateMutability": "view",
      "type": "function",
      "constant": true
    },
    {
      "inputs": [
        {
          "internalType": "uint256",
          "name": "",
          "type": "uint256"
        }
      ],
      "name": "studentDetails",
      "outputs": [
        {
          "internalType": "uint256",
          "name": "id",
          "type": "uint256"
        },
        {
          "internalType": "string",
          "name": "name",
          "type": "string"
        },
        {
          "internalType": "string",
          "name": "dept",
          "type": "string"
        }
      ],
      "stateMutability": "view",
      "type": "function",
      "constant": true
    },
    {
      "inputs": [
        {
          "internalType": "string",
          "name": "a",
          "type": "string"
        },
        {
          "internalType": "string",
          "name": "b",
          "type": "string"
        }
      ],
      "name": "compareStrings",
      "outputs": [
        {
          "internalType": "bool",
          "name": "",
          "type": "bool"
        }
      ],
      "stateMutability": "view",
      "type": "function",
      "constant": true
    },
    {
      "inputs": [
        {
          "internalType": "uint256",
          "name": "student",
          "type": "uint256"
        },
        {
          "internalType": "uint256",
          "name": "courseID",
          "type": "uint256"
        }
      ],
      "name": "enrolledAlready",
      "outputs": [
        {
          "internalType": "bool",
          "name": "",
          "type": "bool"
        }
      ],
      "stateMutability": "view",
      "type": "function",
      "constant": true
    },
    {
      "inputs": [
        {
          "internalType": "string",
          "name": "_name",
          "type": "string"
        },
        {
          "internalType": "uint256",
          "name": "_id",
          "type": "uint256"
        },
        {
          "internalType": "string",
          "name": "_role",
          "type": "string"
        },
        {
          "internalType": "string",
          "name": "_dept",
          "type": "string"
        }
      ],
      "name": "registerUser",
      "outputs": [],
      "stateMutability": "nonpayable",
      "type": "function"
    },
    {
      "inputs": [
        {
          "internalType": "address",
          "name": "_userAddress",
          "type": "address"
        }
      ],
      "name": "returnUserName",
      "outputs": [
        {
          "internalType": "string",
          "name": "",
          "type": "string"
        }
      ],
      "stateMutability": "view",
      "type": "function",
      "constant": true
    },
    {
      "inputs": [
        {
          "internalType": "address",
          "name": "_userAddress",
          "type": "address"
        }
      ],
      "name": "returnUserId",
      "outputs": [
        {
          "internalType": "uint256",
          "name": "",
          "type": "uint256"
        }
      ],
      "stateMutability": "view",
      "type": "function",
      "constant": true
    },
    {
      "inputs": [
        {
          "internalType": "uint256",
          "name": "id",
          "type": "uint256"
        }
      ],
      "name": "returnStudentDetails",
      "outputs": [
        {
          "internalType": "string",
          "name": "",
          "type": "string"
        }
      ],
      "stateMutability": "view",
      "type": "function",
      "constant": true
    },
    {
      "inputs": [
        {
          "internalType": "uint256",
          "name": "_courseID",
          "type": "uint256"
        },
        {
          "internalType": "uint256",
          "name": "_credits",
          "type": "uint256"
        },
        {
          "internalType": "string",
          "name": "_courseName",
          "type": "string"
        },
        {
          "internalType": "uint256",
          "name": "_year",
          "type": "uint256"
        },
        {
          "internalType": "uint256",
          "name": "_seats",
          "type": "uint256"
        },
        {
          "internalType": "string",
          "name": "_staffId",
          "type": "string"
        }
      ],
      "name": "addCourse",
      "outputs": [],
      "stateMutability": "nonpayable",
      "type": "function"
    },
    {
      "inputs": [
        {
          "internalType": "uint256",
          "name": "_studentID",
          "type": "uint256"
        },
        {
          "internalType": "uint256",
          "name": "_courseID",
          "type": "uint256"
        }
      ],
      "name": "enrollCourse",
      "outputs": [],
      "stateMutability": "nonpayable",
      "type": "function"
    },
    {
      "inputs": [
        {
          "internalType": "uint256",
          "name": "_courseID",
          "type": "uint256"
        }
      ],
      "name": "returnCredits",
      "outputs": [
        {
          "internalType": "uint256",
          "name": "",
          "type": "uint256"
        }
      ],
      "stateMutability": "view",
      "type": "function",
      "constant": true
    },
    {
      "inputs": [
        {
          "internalType": "uint256",
          "name": "_studentID",
          "type": "uint256"
        }
      ],
      "name": "getCourses",
      "outputs": [
        {
          "internalType": "uint256[]",
          "name": "",
          "type": "uint256[]"
        }
      ],
      "stateMutability": "view",
      "type": "function",
      "constant": true
    },
    {
      "inputs": [
        {
          "internalType": "uint256",
          "name": "_courseID",
          "type": "uint256"
        }
      ],
      "name": "getCourseName",
      "outputs": [
        {
          "internalType": "string",
          "name": "",
          "type": "string"
        }
      ],
      "stateMutability": "view",
      "type": "function",
      "constant": true
    },
    {
      "inputs": [
        {
          "internalType": "uint256",
          "name": "_courseID",
          "type": "uint256"
        },
        {
          "internalType": "uint256",
          "name": "_studentID",
          "type": "uint256"
        },
        {
          "internalType": "string",
          "name": "_date",
          "type": "string"
        },
        {
          "internalType": "uint256",
          "name": "_class",
          "type": "uint256"
        },
        {
          "internalType": "uint256",
          "name": "_credits",
          "type": "uint256"
        }
      ],
      "name": "markAsPresent",
      "outputs": [],
      "stateMutability": "nonpayable",
      "type": "function"
    },
    {
      "inputs": [
        {
          "internalType": "uint256",
          "name": "_courseID",
          "type": "uint256"
        },
        {
          "internalType": "uint256",
          "name": "_studentID",
          "type": "uint256"
        },
        {
          "internalType": "string",
          "name": "_date",
          "type": "string"
        },
        {
          "internalType": "uint256",
          "name": "_class",
          "type": "uint256"
        },
        {
          "internalType": "uint256",
          "name": "_credits",
          "type": "uint256"
        }
      ],
      "name": "markAsAbsent",
      "outputs": [],
      "stateMutability": "nonpayable",
      "type": "function"
    },
    {
      "inputs": [
        {
          "internalType": "uint256",
          "name": "_courseID",
          "type": "uint256"
        },
        {
          "internalType": "uint256",
          "name": "_studentID",
          "type": "uint256"
        },
        {
          "internalType": "uint256",
          "name": "_credits",
          "type": "uint256"
        }
      ],
      "name": "getAttendance",
      "outputs": [
        {
          "internalType": "uint256",
          "name": "",
          "type": "uint256"
        }
      ],
      "stateMutability": "view",
      "type": "function",
      "constant": true
    },
    {
      "inputs": [
        {
          "internalType": "uint256",
          "name": "_courseID",
          "type": "uint256"
        },
        {
          "internalType": "uint256",
          "name": "_studentID",
          "type": "uint256"
        },
        {
          "internalType": "uint256",
          "name": "_credits",
          "type": "uint256"
        }
      ],
      "name": "getAttendanceList",
      "outputs": [
        {
          "internalType": "string[]",
          "name": "",
          "type": "string[]"
        }
      ],
      "stateMutability": "view",
      "type": "function",
      "constant": true
    },
    {
      "inputs": [
        {
          "internalType": "uint256",
          "name": "_studentID",
          "type": "uint256"
        },
        {
          "internalType": "uint256",
          "name": "_marks",
          "type": "uint256"
        },
        {
          "internalType": "uint256",
          "name": "_courseID",
          "type": "uint256"
        },
        {
          "internalType": "uint256",
          "name": "_testNo",
          "type": "uint256"
        }
      ],
      "name": "addMarks",
      "outputs": [],
      "stateMutability": "nonpayable",
      "type": "function"
    },
    {
      "inputs": [
        {
          "internalType": "uint256",
          "name": "_studentID",
          "type": "uint256"
        },
        {
          "internalType": "uint256",
          "name": "_courseID",
          "type": "uint256"
        },
        {
          "internalType": "uint256",
          "name": "_testNo",
          "type": "uint256"
        },
        {
          "internalType": "uint256",
          "name": "_bonus",
          "type": "uint256"
        }
      ],
      "name": "updateMarks",
      "outputs": [],
      "stateMutability": "nonpayable",
      "type": "function"
    },
    {
      "inputs": [
        {
          "internalType": "uint256",
          "name": "_studentID",
          "type": "uint256"
        },
        {
          "internalType": "uint256",
          "name": "_courseID",
          "type": "uint256"
        },
        {
          "internalType": "uint256",
          "name": "_testNo",
          "type": "uint256"
        }
      ],
      "name": "viewMarks",
      "outputs": [
        {
          "internalType": "uint256",
          "name": "",
          "type": "uint256"
        }
      ],
      "stateMutability": "nonpayable",
      "type": "function"
    }
  ],
  "bytecode": "0x6080604052600060055560006006556040518060200160405280600060ff1681525060079060016200003392919062000048565b503480156200004157600080fd5b50620000be565b8280548282559060005260206000209081019282156200008c579160200282015b828111156200008b578251829060ff1690559160200191906001019062000069565b5b5090506200009b91906200009f565b5090565b5b80821115620000ba576000816000905550600101620000a0565b5090565b612c3180620000ce6000396000f3fe608060405234801561001057600080fd5b50600436106101735760003560e01c8063952e6ed7116100de578063bdcc87f011610097578063d1be530911610071578063d1be5309146104d2578063d5fb052f14610507578063ec5b2c7214610539578063fe615f2a1461056957610173565b8063bdcc87f014610451578063bed34bba14610486578063d0699751146104b657610173565b8063952e6ed714610359578063a1c294cb14610389578063a44a47c4146103a5578063b65774e1146103d5578063b7b7fe8614610405578063b7bb80f91461043557610173565b80636bb0b1d1116101305780636bb0b1d1146102615780636bc41b141461027d5780637405abaa146102ad578063774f402b146102dd5780637be6d2111461030d57806384d3c1001461032957610173565b806306661abd14610178578063068e040d146101965780630c3361fb146101b25780631141dd48146101e557806312cb5f2c1461020157806339da27bd14610231575b600080fd5b610180610587565b60405161018d9190611bbb565b60405180910390f35b6101b060048036038101906101ab9190611d5c565b61058d565b005b6101cc60048036038101906101c79190611df3565b610721565b6040516101dc9493929190611e20565b60405180910390f35b6101ff60048036038101906101fa9190611e65565b610751565b005b61021b60048036038101906102169190611df3565b6108e9565b6040516102289190611f54565b60405180910390f35b61024b60048036038101906102469190611f76565b610991565b6040516102589190611fd1565b60405180910390f35b61027b60048036038101906102769190611e65565b610a0b565b005b61029760048036038101906102929190611df3565b610ad7565b6040516102a49190611bbb565b60405180910390f35b6102c760048036038101906102c29190611df3565b610af7565b6040516102d491906120aa565b60405180910390f35b6102f760048036038101906102f291906120cc565b610b51565b6040516103049190611bbb565b60405180910390f35b61032760048036038101906103229190611f76565b610bfa565b005b610343600480360381019061033e91906120cc565b610c54565b604051610350919061222b565b60405180910390f35b610373600480360381019061036e91906120cc565b610e1a565b6040516103809190611bbb565b60405180910390f35b6103a3600480360381019061039e919061224d565b610ec9565b005b6103bf60048036038101906103ba9190611df3565b6110e0565b6040516103cc9190611bbb565b60405180910390f35b6103ef60048036038101906103ea9190611df3565b611104565b6040516103fc9190611f54565b60405180910390f35b61041f600480360381019061041a9190612370565b6111ac565b60405161042c9190611f54565b60405180910390f35b61044f600480360381019061044a919061239d565b6112a0565b005b61046b60048036038101906104669190611df3565b6114fc565b60405161047d96959493929190612458565b60405180910390f35b6104a0600480360381019061049b91906124c0565b6115cd565b6040516104ad9190611fd1565b60405180910390f35b6104d060048036038101906104cb9190611d5c565b611626565b005b6104ec60048036038101906104e79190611df3565b6117ba565b6040516104fe96959493929190612538565b60405180910390f35b610521600480360381019061051c9190611df3565b611906565b604051610530939291906125a7565b60405180910390f35b610553600480360381019061054e9190612370565b611a40565b6040516105609190611bbb565b60405180910390f35b610571611aac565b60405161057e9190611bbb565b60405180910390f35b60055481565b8160648561059b919061261b565b620186a0876105aa919061261b565b6105b49190612675565b6105be9190612675565b6005819055506000600360006005548152602001908152602001600020600101541461061f576040517f08c379a000000000000000000000000000000000000000000000000000000000815260040161061690612717565b60405180910390fd5b600c8161062c919061261b565b821061066d576040517f08c379a000000000000000000000000000000000000000000000000000000000815260040161066490612783565b60405180910390fd5b6040518060c0016040528086815260200185815260200184815260200160011515815260200183815260200182815250600360006005548152602001908152602001600020600082015181600001556020820151816001015560408201518160020190805190602001906106e2929190611ab2565b5060608201518160030160006101000a81548160ff0219169083151502179055506080820151816004015560a082015181600501559050505050505050565b60046020528060005260406000206000915090508060000154908060010154908060020154908060030154905084565b600083118015610762575060648311155b6107a1576040517f08c379a0000000000000000000000000000000000000000000000000000000008152600401610798906127ef565b60405180910390fd5b6000811180156107b2575060048111155b6107f1576040517f08c379a00000000000000000000000000000000000000000000000000000000081526004016107e890612881565b60405180910390fd5b80600a856107ff919061261b565b6127108461080d919061261b565b6108179190612675565b6108219190612675565b60068190555060006004600060065481526020019081526020016000206000015414610882576040517f08c379a000000000000000000000000000000000000000000000000000000000815260040161087990612913565b60405180910390fd5b6040518060800160405280858152602001848152602001838152602001828152506004600060065481526020019081526020016000206000820151816000015560208201518160010155604082015181600201556060820151816003015590505050505050565b606060016000838152602001908152602001600020600201805461090c90612962565b80601f016020809104026020016040519081016040528092919081815260200182805461093890612962565b80156109855780601f1061095a57610100808354040283529160200191610985565b820191906000526020600020905b81548152906001019060200180831161096857829003601f168201915b50505050509050919050565b600080600090506001600084815260200190815260200160002060040154811015610a0357836001600085815260200190815260200160002060050182815481106109df576109de612993565b5b9060005260206000200154036109f9576001915050610a05565b6000915050610a05565b505b92915050565b600082118015610a1c575060048211155b610a5b576040517f08c379a0000000000000000000000000000000000000000000000000000000008152600401610a5290612881565b60405180910390fd5b81600a85610a69919061261b565b61271085610a77919061261b565b610a819190612675565b610a8b9190612675565b6006819055508060046000600654815260200190815260200160002060010154610ab59190612675565b6004600060065481526020019081526020016000206001018190555050505050565b600060016000838152602001908152602001600020600101549050919050565b60606007805480602002602001604051908101604052809291908181526020018280548015610b4557602002820191906000526020600020905b815481526020019060010190808311610b31575b50505050509050919050565b60008082118015610b63575060048211155b610ba2576040517f08c379a0000000000000000000000000000000000000000000000000000000008152600401610b9990612881565b60405180910390fd5b81600a85610bb0919061261b565b61271085610bbe919061261b565b610bc89190612675565b610bd29190612675565b6006819055506004600060065481526020019081526020016000206001015490509392505050565b60018060008381526020019081526020016000206004016000828254610c209190612a0a565b9250508190555060078190806001815401808255809150506001900390600052602060002001600090919091909150555050565b6060600080600080600c86610c69919061261b565b67ffffffffffffffff811115610c8257610c81611c31565b5b604051908082528060200260200182016040528015610cb557816020015b6060815260200190600190039081610ca05790505b509050600093505b600c86610cca919061261b565b841015610e0c5783606488610cdf919061261b565b620186a08a610cee919061261b565b610cf89190612675565b610d029190612675565b91506003600083815260200190815260200160002060030160009054906101000a900460ff1615610df957600360008381526020019081526020016000206002018054610d4e90612962565b80601f0160208091040260200160405190810160405280929190818152602001828054610d7a90612962565b8015610dc75780601f10610d9c57610100808354040283529160200191610dc7565b820191906000526020600020905b815481529060010190602001808311610daa57829003601f168201915b5050505050818481518110610ddf57610dde612993565b5b60200260200101819052508280610df5906129c2565b9350505b8380610e04906129c2565b945050610cbd565b809450505050509392505050565b60008060009050600080600092505b600c85610e36919061261b565b831015610ebc5782606487610e4b919061261b565b620186a089610e5a919061261b565b610e649190612675565b610e6e9190612675565b91506003600083815260200190815260200160002060030160009054906101000a900460ff1615610ea957600181610ea69190612675565b90505b8280610eb4906129c2565b935050610e29565b8093505050509392505050565b60008511610f0c576040517f08c379a0000000000000000000000000000000000000000000000000000000008152600401610f0390612ab0565b60405180910390fd5b60018310158015610f1e575060048311155b610f5d576040517f08c379a0000000000000000000000000000000000000000000000000000000008152600401610f5490612b1c565b60405180910390fd5b6000600160008881526020019081526020016000206002018054610f8090612962565b905014610fc2576040517f08c379a0000000000000000000000000000000000000000000000000000000008152600401610fb990612b88565b60405180910390fd5b60008067ffffffffffffffff811115610fde57610fdd611c31565b5b60405190808252806020026020018201604052801561100c5781602001602082028036833780820191505090505b5090506040518060e00160405280888152602001878152602001868152602001858152602001848152602001828152602001838152506001600089815260200190815260200160002060008201518160000155602082015181600101556040820151816002019080519060200190611085929190611ab2565b50606082015181600301556080820151816004015560a08201518160050190805190602001906110b6929190611b38565b5060c08201518160060190805190602001906110d3929190611ab2565b5090505050505050505050565b600781815481106110f057600080fd5b906000526020600020016000915090505481565b606060026000838152602001908152602001600020600101805461112790612962565b80601f016020809104026020016040519081016040528092919081815260200182805461115390612962565b80156111a05780601f10611175576101008083540402835291602001916111a0565b820191906000526020600020905b81548152906001019060200180831161118357829003601f168201915b50505050509050919050565b60606000808373ffffffffffffffffffffffffffffffffffffffff1673ffffffffffffffffffffffffffffffffffffffff1681526020019081526020016000206000815481106111ff576111fe612993565b5b9060005260206000209060040201600001805461121b90612962565b80601f016020809104026020016040519081016040528092919081815260200182805461124790612962565b80156112945780601f1061126957610100808354040283529160200191611294565b820191906000526020600020905b81548152906001019060200180831161127757829003601f168201915b50505050509050919050565b60008067ffffffffffffffff8111156112bc576112bb611c31565b5b6040519080825280602002602001820160405280156112ea5781602001602082028036833780820191505090505b5090506000803373ffffffffffffffffffffffffffffffffffffffff1673ffffffffffffffffffffffffffffffffffffffff16815260200190815260200160002060405180608001604052808781526020018681526020013373ffffffffffffffffffffffffffffffffffffffff16815260200185815250908060018154018082558091505060019003906000526020600020906004020160009091909190915060008201518160000190805190602001906113a7929190611ab2565b506020820151816001015560408201518160020160006101000a81548173ffffffffffffffffffffffffffffffffffffffff021916908373ffffffffffffffffffffffffffffffffffffffff1602179055506060820151816003019080519060200190611415929190611ab2565b505050611457836040518060400160405280600781526020017f53747564656e74000000000000000000000000000000000000000000000000008152506115cd565b156114f557604051806080016040528085815260200186815260200183815260200182815250600260008681526020019081526020016000206000820151816000015560208201518160010190805190602001906114b6929190611ab2565b5060408201518160020190805190602001906114d3929190611ab2565b5060608201518160030190805190602001906114f0929190611b38565b509050505b5050505050565b600360205280600052604060002060009150905080600001549080600101549080600201805461152b90612962565b80601f016020809104026020016040519081016040528092919081815260200182805461155790612962565b80156115a45780601f10611579576101008083540402835291602001916115a4565b820191906000526020600020905b81548152906001019060200180831161158757829003601f168201915b5050505050908060030160009054906101000a900460ff16908060040154908060050154905086565b6000816040516020016115e09190612be4565b60405160208183030381529060405280519060200120836040516020016116079190612be4565b6040516020818303038152906040528051906020012014905092915050565b81606485611634919061261b565b620186a087611643919061261b565b61164d9190612675565b6116579190612675565b600581905550600060036000600554815260200190815260200160002060010154146116b8576040517f08c379a00000000000000000000000000000000000000000000000000000000081526004016116af90612717565b60405180910390fd5b600c816116c5919061261b565b8210611706576040517f08c379a00000000000000000000000000000000000000000000000000000000081526004016116fd90612783565b60405180910390fd5b6040518060c00160405280868152602001858152602001848152602001600015158152602001838152602001828152506003600060055481526020019081526020016000206000820151816000015560208201518160010155604082015181600201908051906020019061177b929190611ab2565b5060608201518160030160006101000a81548160ff0219169083151502179055506080820151816004015560a082015181600501559050505050505050565b60016020528060005260406000206000915090508060000154908060010154908060020180546117e990612962565b80601f016020809104026020016040519081016040528092919081815260200182805461181590612962565b80156118625780601f1061183757610100808354040283529160200191611862565b820191906000526020600020905b81548152906001019060200180831161184557829003601f168201915b50505050509080600301549080600401549080600601805461188390612962565b80601f01602080910402602001604051908101604052809291908181526020018280546118af90612962565b80156118fc5780601f106118d1576101008083540402835291602001916118fc565b820191906000526020600020905b8154815290600101906020018083116118df57829003601f168201915b5050505050905086565b600260205280600052604060002060009150905080600001549080600101805461192f90612962565b80601f016020809104026020016040519081016040528092919081815260200182805461195b90612962565b80156119a85780601f1061197d576101008083540402835291602001916119a8565b820191906000526020600020905b81548152906001019060200180831161198b57829003601f168201915b5050505050908060020180546119bd90612962565b80601f01602080910402602001604051908101604052809291908181526020018280546119e990612962565b8015611a365780601f10611a0b57610100808354040283529160200191611a36565b820191906000526020600020905b815481529060010190602001808311611a1957829003601f168201915b5050505050905083565b60008060008373ffffffffffffffffffffffffffffffffffffffff1673ffffffffffffffffffffffffffffffffffffffff168152602001908152602001600020600081548110611a9357611a92612993565b5b9060005260206000209060040201600101549050919050565b60065481565b828054611abe90612962565b90600052602060002090601f016020900481019282611ae05760008555611b27565b82601f10611af957805160ff1916838001178555611b27565b82800160010185558215611b27579182015b82811115611b26578251825591602001919060010190611b0b565b5b509050611b349190611b85565b5090565b828054828255906000526020600020908101928215611b74579160200282015b82811115611b73578251825591602001919060010190611b58565b5b509050611b819190611b85565b5090565b5b80821115611b9e576000816000905550600101611b86565b5090565b6000819050919050565b611bb581611ba2565b82525050565b6000602082019050611bd06000830184611bac565b92915050565b6000604051905090565b600080fd5b600080fd5b611bf381611ba2565b8114611bfe57600080fd5b50565b600081359050611c1081611bea565b92915050565b600080fd5b600080fd5b6000601f19601f8301169050919050565b7f4e487b7100000000000000000000000000000000000000000000000000000000600052604160045260246000fd5b611c6982611c20565b810181811067ffffffffffffffff82111715611c8857611c87611c31565b5b80604052505050565b6000611c9b611bd6565b9050611ca78282611c60565b919050565b600067ffffffffffffffff821115611cc757611cc6611c31565b5b611cd082611c20565b9050602081019050919050565b82818337600083830152505050565b6000611cff611cfa84611cac565b611c91565b905082815260208101848484011115611d1b57611d1a611c1b565b5b611d26848285611cdd565b509392505050565b600082601f830112611d4357611d42611c16565b5b8135611d53848260208601611cec565b91505092915050565b600080600080600060a08688031215611d7857611d77611be0565b5b6000611d8688828901611c01565b9550506020611d9788828901611c01565b945050604086013567ffffffffffffffff811115611db857611db7611be5565b5b611dc488828901611d2e565b9350506060611dd588828901611c01565b9250506080611de688828901611c01565b9150509295509295909350565b600060208284031215611e0957611e08611be0565b5b6000611e1784828501611c01565b91505092915050565b6000608082019050611e356000830187611bac565b611e426020830186611bac565b611e4f6040830185611bac565b611e5c6060830184611bac565b95945050505050565b60008060008060808587031215611e7f57611e7e611be0565b5b6000611e8d87828801611c01565b9450506020611e9e87828801611c01565b9350506040611eaf87828801611c01565b9250506060611ec087828801611c01565b91505092959194509250565b600081519050919050565b600082825260208201905092915050565b60005b83811015611f06578082015181840152602081019050611eeb565b83811115611f15576000848401525b50505050565b6000611f2682611ecc565b611f308185611ed7565b9350611f40818560208601611ee8565b611f4981611c20565b840191505092915050565b60006020820190508181036000830152611f6e8184611f1b565b905092915050565b60008060408385031215611f8d57611f8c611be0565b5b6000611f9b85828601611c01565b9250506020611fac85828601611c01565b9150509250929050565b60008115159050919050565b611fcb81611fb6565b82525050565b6000602082019050611fe66000830184611fc2565b92915050565b600081519050919050565b600082825260208201905092915050565b6000819050602082019050919050565b61202181611ba2565b82525050565b60006120338383612018565b60208301905092915050565b6000602082019050919050565b600061205782611fec565b6120618185611ff7565b935061206c83612008565b8060005b8381101561209d5781516120848882612027565b975061208f8361203f565b925050600181019050612070565b5085935050505092915050565b600060208201905081810360008301526120c4818461204c565b905092915050565b6000806000606084860312156120e5576120e4611be0565b5b60006120f386828701611c01565b935050602061210486828701611c01565b925050604061211586828701611c01565b9150509250925092565b600081519050919050565b600082825260208201905092915050565b6000819050602082019050919050565b600082825260208201905092915050565b600061216782611ecc565b612171818561214b565b9350612181818560208601611ee8565b61218a81611c20565b840191505092915050565b60006121a1838361215c565b905092915050565b6000602082019050919050565b60006121c18261211f565b6121cb818561212a565b9350836020820285016121dd8561213b565b8060005b8581101561221957848403895281516121fa8582612195565b9450612205836121a9565b925060208a019950506001810190506121e1565b50829750879550505050505092915050565b6000602082019050818103600083015261224581846121b6565b905092915050565b60008060008060008060c0878903121561226a57612269611be0565b5b600061227889828a01611c01565b965050602061228989828a01611c01565b955050604087013567ffffffffffffffff8111156122aa576122a9611be5565b5b6122b689828a01611d2e565b94505060606122c789828a01611c01565b93505060806122d889828a01611c01565b92505060a087013567ffffffffffffffff8111156122f9576122f8611be5565b5b61230589828a01611d2e565b9150509295509295509295565b600073ffffffffffffffffffffffffffffffffffffffff82169050919050565b600061233d82612312565b9050919050565b61234d81612332565b811461235857600080fd5b50565b60008135905061236a81612344565b92915050565b60006020828403121561238657612385611be0565b5b60006123948482850161235b565b91505092915050565b600080600080608085870312156123b7576123b6611be0565b5b600085013567ffffffffffffffff8111156123d5576123d4611be5565b5b6123e187828801611d2e565b94505060206123f287828801611c01565b935050604085013567ffffffffffffffff81111561241357612412611be5565b5b61241f87828801611d2e565b925050606085013567ffffffffffffffff8111156124405761243f611be5565b5b61244c87828801611d2e565b91505092959194509250565b600060c08201905061246d6000830189611bac565b61247a6020830188611bac565b818103604083015261248c8187611f1b565b905061249b6060830186611fc2565b6124a86080830185611bac565b6124b560a0830184611bac565b979650505050505050565b600080604083850312156124d7576124d6611be0565b5b600083013567ffffffffffffffff8111156124f5576124f4611be5565b5b61250185828601611d2e565b925050602083013567ffffffffffffffff81111561252257612521611be5565b5b61252e85828601611d2e565b9150509250929050565b600060c08201905061254d6000830189611bac565b61255a6020830188611bac565b818103604083015261256c8187611f1b565b905061257b6060830186611bac565b6125886080830185611bac565b81810360a083015261259a8184611f1b565b9050979650505050505050565b60006060820190506125bc6000830186611bac565b81810360208301526125ce8185611f1b565b905081810360408301526125e28184611f1b565b9050949350505050565b7f4e487b7100000000000000000000000000000000000000000000000000000000600052601160045260246000fd5b600061262682611ba2565b915061263183611ba2565b9250817fffffffffffffffffffffffffffffffffffffffffffffffffffffffffffffffff048311821515161561266a576126696125ec565b5b828202905092915050565b600061268082611ba2565b915061268b83611ba2565b9250827fffffffffffffffffffffffffffffffffffffffffffffffffffffffffffffffff038211156126c0576126bf6125ec565b5b828201905092915050565b7f416c7265616479206d61726b656420617474656e64616e636500000000000000600082015250565b6000612701601983611ed7565b915061270c826126cb565b602082019050919050565b60006020820190508181036000830152612730816126f4565b9050919050565b7f436f7572736520636f6e636c7564656400000000000000000000000000000000600082015250565b600061276d601083611ed7565b915061277882612737565b602082019050919050565b6000602082019050818103600083015261279c81612760565b9050919050565b7f506c6561736520656e74657220612076616c6964206173736573736d656e7400600082015250565b60006127d9601f83611ed7565b91506127e4826127a3565b602082019050919050565b60006020820190508181036000830152612808816127cc565b9050919050565b7f506c6561736520636865636b207468652074657374206e756d62657220796f7560008201527f20617265206c6f6f6b696e6720666f7200000000000000000000000000000000602082015250565b600061286b603083611ed7565b91506128768261280f565b604082019050919050565b6000602082019050818103600083015261289a8161285e565b9050919050565b7f416c7265616479206164646564206173736573736d656e7420666f722074686960008201527f732073747564656e740000000000000000000000000000000000000000000000602082015250565b60006128fd602983611ed7565b9150612908826128a1565b604082019050919050565b6000602082019050818103600083015261292c816128f0565b9050919050565b7f4e487b7100000000000000000000000000000000000000000000000000000000600052602260045260246000fd5b6000600282049050600182168061297a57607f821691505b60208210810361298d5761298c612933565b5b50919050565b7f4e487b7100000000000000000000000000000000000000000000000000000000600052603260045260246000fd5b60006129cd82611ba2565b91507fffffffffffffffffffffffffffffffffffffffffffffffffffffffffffffffff82036129ff576129fe6125ec565b5b600182019050919050565b6000612a1582611ba2565b9150612a2083611ba2565b925082821015612a3357612a326125ec565b5b828203905092915050565b7f506c6561736520656e74657220746865206e756d626572206f6620637265646960008201527f747320666f72207468697320636f757273650000000000000000000000000000602082015250565b6000612a9a603283611ed7565b9150612aa582612a3e565b604082019050919050565b60006020820190508181036000830152612ac981612a8d565b9050919050565b7f506c6561736520656e74657220612076616c6964207965617200000000000000600082015250565b6000612b06601983611ed7565b9150612b1182612ad0565b602082019050919050565b60006020820190508181036000830152612b3581612af9565b9050919050565b7f5468697320636f7572736520616c726561647920657869737473000000000000600082015250565b6000612b72601a83611ed7565b9150612b7d82612b3c565b602082019050919050565b60006020820190508181036000830152612ba181612b65565b9050919050565b600081905092915050565b6000612bbe82611ecc565b612bc88185612ba8565b9350612bd8818560208601611ee8565b80840191505092915050565b6000612bf08284612bb3565b91508190509291505056fea2646970667358221220a64b06b19b4273057baa6c4faca04546f63afcd0064d13699e0ea86be54c3d2164736f6c634300080e0033",
  "immutableReferences": {},
  "source": "contract StudentDataManagement {\n  mapping(address => User[]) users; \n  mapping(uint => Course) public courseDetails;\n  mapping(uint => Student) public studentDetails;\n  mapping(uint => Attendance) public attendanceRecord;\n  mapping(uint => Assessment) public stdRecords;\n\n  uint public count = 0;\n  uint public stdCount = 0;\n  uint[] public semester1 = [0];\n\n  struct User {\n      string name;\n      uint id;\n      address user_address;\n      string role;\n  }\n  \n  struct Subject {\n      uint subject_id;\n      string subject_name;\n      uint credits;\n  }\n\n  struct Student {\n    uint id;\n    string name;\n    string dept;\n    uint[] courses;\n  }\n\n  struct Course {\n    uint courseID;\n    uint credits;\n    string courseName;\n    uint year;\n    uint seats;\n    uint[] students;\n    string staffId;\n  }\n\n  struct Attendance {\n    uint courseID;\n    uint studentID;\n    string date;\n    bool present;\n    uint class;\n    uint credits;\n  }\n\n  struct Assessment {\n\tuint studentID;\n\tuint marks;\n    uint courseID;\n    uint testNo;\n  }\n\n    // internal functions, don't bother\n\n    function compareStrings (string memory a, string memory b ) public view returns (bool) {\n      return (keccak256(abi.encodePacked((a))) == keccak256(abi.encodePacked((b))));\n    }\n\n    function enrolledAlready (uint student, uint courseID) public view returns (bool) {\n        for (uint i = 0; i < courseDetails[courseID].seats; i++) {\n            if(courseDetails[courseID].students[i] == student) {\n                return true;\n            }\n            return false;\n        }\n    } \n\n    // User registration \n\n    function registerUser (string memory _name, uint _id, string memory _role, string memory _dept) public {\n      uint[] memory emptyList = new uint[](0);\n      users[msg.sender].push(User({\n          name: _name,\n          id: _id,\n          user_address: msg.sender,\n          role: _role\n      }));\n      if(compareStrings(_role, \"Student\")) {\n          studentDetails[_id] = Student(_id, _name, _dept, emptyList);\n      }\n    }\n\n    function returnUserName (address _userAddress) view public returns(string memory) {\n      return users[_userAddress][0].name;\n    }\n\n    function returnUserId (address _userAddress) view public returns(uint) {\n      return users[_userAddress][0].id;\n    }\n\n    function returnStudentDetails (uint id) view public returns (string memory) {\n        return studentDetails[id].name;\n    }\n\n    // Course related stuff\n\n    function addCourse (uint _courseID, uint _credits, string memory _courseName, uint _year, uint _seats, string memory _staffId ) public {\n        require(_credits > 0, \"Please enter the number of credits for this course\");\n        require(_year >= 1 && _year <= 4, \"Please enter a valid year\");\n        require(bytes(courseDetails[_courseID].courseName).length == 0, \"This course already exists\");\n        uint[] memory emptyList = new uint[](0);\n        courseDetails[_courseID] = Course(_courseID, _credits, _courseName, _year, _seats, emptyList, _staffId);\n    }\n\n    function enrollCourse (uint _studentID, uint _courseID) public {\n        courseDetails[_courseID].seats -= 1;\n        semester1.push(_courseID);\n    }\n\n    function returnCredits (uint _courseID) view public returns (uint) {\n        return courseDetails[_courseID].credits;\n    }\n\n    function getCourses (uint _studentID) view public returns (uint[] memory) {\n        return semester1;\n    }\n\n    function getCourseName (uint _courseID) view public returns (string memory) {\n        return courseDetails[_courseID].courseName;\n    }\n    \n    // Attendance \n\n    function markAsPresent (uint _courseID, uint _studentID, string memory _date, uint _class, uint _credits) public {\n        count = (_courseID * 100000) + (_studentID * 100) + _class;\n        require(attendanceRecord[count].studentID == 0, \"Already marked attendance\");\n        require(_class < (_credits * 12), \"Course concluded\");\n        attendanceRecord[count] = Attendance(_courseID, _studentID, _date, true, _class, _credits);\n    }\n\n    function markAsAbsent (uint _courseID, uint _studentID, string memory _date, uint _class, uint _credits) public {\n        count = (_courseID * 100000) + (_studentID * 100) + _class;\n        require(attendanceRecord[count].studentID == 0, \"Already marked attendance\");\n        require(_class < (_credits * 12), \"Course concluded\");\n        attendanceRecord[count] = Attendance(_courseID, _studentID, _date, false, _class, _credits);\n    }\n\n    function getAttendance (uint _courseID, uint _studentID, uint _credits) public view returns (uint) {\n        uint i = 0;\n        uint dummyCount = 0;\n        uint noOfClasses = 0;\n        for( i = 0; i < (_credits * 12); i++){\n            dummyCount = (_courseID * 100000) + (_studentID * 100) + i;\n            if(attendanceRecord[dummyCount].present){\n                noOfClasses += 1;\n            } \n        }\n        return noOfClasses;\n    }\n\n    function getAttendanceList (uint _courseID, uint _studentID, uint _credits) public view returns (string[] memory) {\n        uint i = 0;\n        uint j = 0;\n        uint dummyCount = 0;\n        string[] memory presentDates = new string[](_credits * 12);\n\n        for (i = 0; i < (_credits * 12); i++){\n            dummyCount = (_courseID * 100000) + (_studentID * 100) + i;\n            if(attendanceRecord[dummyCount].present){\n                presentDates[j] = attendanceRecord[dummyCount].date;\n                j++;\n            } \n        }\n        return presentDates;\n    }\n\n    // Assessment \n\n    function addMarks (uint _studentID,   uint _marks,  uint _courseID,  uint _testNo) public {\n\t\trequire(_marks > 0 && _marks <= 100, \"Please enter a valid assessment\");\n\t\trequire(_testNo > 0 && _testNo <=4, \"Please check the test number you are looking for\");\n\t\tstdCount = (_courseID * 10000) + (_studentID * 10) + (_testNo);\n        require(stdRecords[stdCount].studentID == 0, \"Already added assessment for this student\");\n\t\tstdRecords[stdCount] = Assessment(_studentID, _marks, _courseID, _testNo);\n\t}\n\n\tfunction updateMarks (uint _studentID,  uint _courseID,  uint _testNo,  uint _bonus) public {\n\t\trequire(_testNo > 0 && _testNo <=4, \"Please check the test number you are looking for\");\n        stdCount = (_courseID * 10000) + (_studentID * 10) + (_testNo);\n\t\tstdRecords[stdCount].marks = stdRecords[stdCount].marks + _bonus;\n\t}\n\n\tfunction viewMarks (uint _studentID,  uint _courseID,  uint _testNo) public returns (uint) {\n\t\trequire(_testNo > 0 && _testNo <=4, \"Please check the test number you are looking for\");\n\t\tstdCount = (_courseID * 10000) + (_studentID * 10) + (_testNo);\n\t\treturn stdRecords[stdCount].marks;\n\t}\n}",
  "sourcePath": "/Volumes/Samsung T5 500GB/Final Year Project/Final year project secondary/Student-Record-Data-Management/truffle/contracts/StudentDataManagement.sol",
  "compiler": {
    "name": "solc",
    "version": "0.8.14+commit.80d49f37.Emscripten.clang"
  },
  "schemaVersion": "3.4.7",
  "updatedAt": "2022-06-05T06:32:05.109Z",
  "networkType": "ethereum",
  "devdoc": {
    "kind": "dev",
    "methods": {},
    "version": 1
  },
  "userdoc": {
    "kind": "user",
    "methods": {},
    "version": 1
  }
}